:020000040800F2
:10000000804C0020CD01000845080008A907000821
:10001000AB070008ED0300081537000800000000DA
:100020000000000000000000000000001137000880
:100030008505000800000000DF0200081118000814
:10004000E7010008E7010008E7010008E7010008F0
:10005000E7010008E7010008E7010008E7010008E0
:10006000E7010008E7010008E7010008E7010008D0
:10007000E7010008E7010008E7010008E7010008C0
:10008000E7010008E7010008E7010008E7010008B0
:10009000E7010008E7010008E7010008E7010008A0
:1000A000E7010008E7010008E7010008E701000890
:1000B000E7010008E7010008E7010008E701000880
:1000C000E7010008E7010008E7010008E701000870
:1000D000E7010008E7010008E7010008E701000860
:1000E000E7010008E7010008E7010008E701000850
:1000F000E7010008E7010008E7010008E701000840
:10010000E7010008E7010008E7010008E70100082F
:10011000E7010008E7010008E7010008E70100081F
:10012000E7010008E7010008E7010008E70100080F
:1001300000F002F800F03AF80AA090E8000C8244BF
:100140008344AAF10107DA4501D100F02FF8AFF29C
:10015000090EBAE80F0013F0010F18BFFB1A43F0A5
:100160000103184784360000A4360000103A24BF6B
:1001700078C878C1FAD8520724BF30C830C144BF0C
:1001800004680C607047000000230024002500264E
:10019000103A28BF78C1FBD8520728BF30C148BFEA
:1001A0000B6070471FB51FBD10B510BD00F04BF8B8
:1001B0001146FFF7F7FF03F0AFFA00F069F803B458
:1001C000FFF7F2FF03BC00F071F800000948804718
:1001D00009480047FEE7FEE7FEE7FEE7FEE7FEE729
:1001E000FEE7FEE7FEE7FEE704480549054A064B41
:1001F00070470000133700083101000880460020D6
:10020000804C0020804800208048002072B6704753
:1002100062B67047EFF3108072B6704780F31088B3
:10022000704730BF704720BF7047B0FA80F070470A
:1002300090FAA0F0B0FA80F0704790FAA0F0704702
:10024000704770477047754600F02CF8AE460500C1
:100250006946534620F00700854618B020B5FFF7E1
:10026000C3FFBDE820404FF000064FF000074FF0FD
:1002700000084FF0000B21F00701AC46ACE8C009C4
:10028000ACE8C009ACE8C009ACE8C0098D467047CD
:1002900010B50446AFF300802046BDE81040FFF7DC
:1002A0008EBF0000004870471C46002001491820FE
:1002B000ABBEFEE7260002007047000018484FF072
:1002C000FF010170002080F309881648016881F35E
:1002D000088815484FF08051016062B6FEE772B69B
:1002E000EFF3098028B1203880E8F00F0F49096842
:1002F000086000B50E4880475DF804EB0D480E49D4
:100300000A78027009480D490A680260106890E88E
:10031000F00F203080F309884EF0040E62B670476B
:1003200022ED00E02000002004ED00E0EC000020C1
:10033000E51400087E0000207F000020F00000206F
:1003400088B000F043F800241E48039404940594F8
:100350000694816941F008018161816901F0080119
:100360000091816941F0040181618069164D00F0BE
:100370000400009000220221284600F009FA03AA96
:100380000220012182E81300069003A9284600F00C
:10039000FBF800F02DF800F00DFA02A800F0CEFCFA
:1003A00000F072F802AE4FF4FA770221284600F00E
:1003B000E7F90022CDE900463B461146104601F020
:1003C0003BF9F2E700100240000C0140AFF300805F
:1003D00010B500F0E3F904490968BDE81040B0FB2E
:1003E000F1F001F02DBA0000BC370008FEE7000074
:1003F000054910B50020486000F0A6F800F006F8A6
:10040000BDE8104000F086B8040000202DE9F0415E
:10041000104D002427462C806C80AC60EC606C6131
:10042000AC612C61FFF7F6FE804600266C6100F09F
:1004300049F800F057F86869761C36040744360C12
:10044000F4D0C5E904744046AC61BDE8F041FFF763
:10045000E5BE00000400002003490969884201D973
:10046000401A7047002070470400002010B5FFF7C5
:10047000D1FE04494C69FFF7D1FE2046BDE810408B
:10048000FFF7EABF0400002010B5FFF7EFFF0446B6
:10049000FFF7C0FE034A00215161FFF7BFFE20466F
:1004A00010BD00000400002010B5FFF7B3FE0449A2
:1004B0008C69FFF7B3FE2046BDE81040FFF7CCBFC4
:1004C0000400002010B5064C2088401C2080608865
:1004D00010B900F051F8A0606088401C608010BD29
:1004E0000400002010B50A4C6088401E0004000C77
:1004F00060800CD100F040F8E060A168401A6169AA
:10050000814200D26061A169814200D2A06110BD28
:100510000400002010B5FFF77DFE0446FFF7D2FF70
:100520001021054800F042F9FFF7DCFF2046BDE846
:100530001040FFF773BE0000C0030020014948606F
:100540007047000004000020094810B5016841F020
:1005500080710160074800214160016841F001019C
:10056000016000F01BF9BDE81040FFF7E7BF000095
:10057000FCED00E0001000E001484068704700001A
:10058000001000E0704700002DE9F84FDFF8C89137
:100590000024A9F1040B23460F2709F1040AABF14B
:1005A000040ED1E00125A54006EA0502AA4276D153
:1005B000DFF8A8C14E68A6EB0C0866452BD00DDC11
:1005C000032E34D005DC36B3012E19D0022E2FD1E4
:1005D0001BE0112E16D0122E2AD119E0B8F5881F73
:1005E00019D006DCB8F5803F15D0B8F5801F1FD1B3
:1005F00011E0B8F5001F0ED0B8F5041F18D10AE0BD
:10060000CB6815E0CB681B1D12E0CB6808330FE008
:10061000CB680C330CE08B682BB1012B4FF0080337
:1006200003D0456104E0042302E0056100E00023FB
:10063000FF2A01D8064601E000F104064FEA8405CE
:1006400001D9A5F12005D6F8008007FA05FC28EAB3
:100650000C0803FA05F548EA0508C6F800804D685D
:10066000ED0070D53E4DAE6946F00106AE61AD6954
:1006700024F0030605F0010500953A4D06EB050C44
:10068000DCF80850A607360F07FA06F825EA080531
:10069000DFF8D480404503D14FF0000825E052E058
:1006A000DFF8C880404502D14FF001081DE0DFF8B7
:1006B000C080404502D14FF0020816E0DFF8B48058
:1006C000404502D14FF003080FE0DFF8AC80404511
:1006D00002D14FF0040808E0DFF8A080404502D1C5
:1006E0004FF0050801E04FF0060808FA06F848EA5E
:1006F0000508CCF808804D68D9F80060ED024D4639
:1007000001D5164300E096432E604D68DAF800608C
:10071000AD02554601D5164300E096432E604D6864
:10072000DBF80060AD035D4601D5164300E096435B
:100730002E604D68DEF80060ED03754601D5164366
:1007400000E096432E60641C0A681646E2407FF47F
:1007500029AFBDE8F88F0000080401400000111027
:10076000001002400000014000080140000C014060
:10077000001001400014014000180140001C01401D
:10078000C26821EA02030A4043EA0241016170475C
:100790000AB1016170470904FBE7000001480068E5
:1007A0007047000000000020FEE7FEE70A46002137
:1007B00000F022B80D480E490246C0E9001200219F
:1007C0008160C160016141618161C1610162016358
:1007D000C162416200F148018163C1634FF420515D
:1007E000016441640348026070470000D41D00208A
:1007F00048454150F400002010B5002A21D00028BF
:100800001FD000244FEA04035B1C41EA0424042B9C
:10081000FAD310F0030305D10BE000BF521E00F81D
:10082000011B5B1C002A0CD0042BF7D301E010C085
:10083000121F042AFBD202E000F8011B521E002AFC
:10084000FAD110BDFEE7704702480068002800D0CA
:10085000004770473400002010B5044600F0BEF891
:10086000464800210A220170454801704548017040
:1008700045480160454801604548017045480170A0
:1008800045480170454801604548016045480160A0
:100890004548017045480068B0FBF2F0444A1060DA
:1008A000444A106830B14448006818B1126802C068
:1008B000521EFCD14148016041480160414801603D
:1008C0004148016041480160414801604148016080
:1008D0004148017001F0B4FC01F066FD204600F0D3
:1008E000C5FF2088002847D1204601F0B9FA2088AA
:1008F000002841D1204601F0BFFA208800283BD1D2
:10090000204601F053FB2088002835D1204601F015
:10091000BDFC208800282FD1204601F06DFE2088E4
:10092000002829D1204602F0D9F82088002823D1B8
:10093000204601F009FA208800281DD1204601F048
:10094000A1F82088002817D1204602F033FD208826
:10095000002811D1204602F01FF8208800280BD172
:10096000204602F07BFD2088002805D100F07CFFA6
:10097000BDE81040FFF767BF10BD00004800002031
:100980005000002098000020EC000020F000002023
:100990007E0000207F000020800000208C000020CE
:1009A0009000002094000020A0000020BC37000828
:1009B0009C00002098370008943700082800002089
:1009C0002C000020300000203400002038000020DF
:1009D0003C00002040000020CE00002030B5094B34
:1009E0000020094A0446196801E010C1401C15683E
:1009F000A842FAD31868054900EB8500001F08607B
:100A000030BD00009437000898370008200000200F
:100A10001A4810B5007801282FD1FFF7FBFB184AC0
:100A20000446117829B1491E11F0FF00107022D13F
:100A300003E0BDE81040FFF7F1BB12480078D0B9E1
:100A400001F0ECFB10490870104900EB400051F830
:100A500020100F4801600F48006881420BD051F808
:100A6000900F401C08600C480168491C01600B494C
:100A70004FF0805008602046DBE710BD500000209A
:100A800048000020980000207F000020FC19002072
:100A9000F0000020EC000020C400002004ED00E085
:100AA000164810B50078002826D11548007800288F
:100AB00022D1FFF7AFFB044601F0B0FB11490870EB
:100AC000114900EB400051F820001049086010491E
:100AD000096888420BD050F8901F491C01600D48EE
:100AE0000168491C01600C494FF0805008602046A5
:100AF000BDE81040FFF792BB10BD00004800002089
:100B0000980000207F000020FC190020F000002049
:100B1000EC000020C400002004ED00E070B50446A5
:100B20001248007810B146F662501DE01048007877
:100B3000012802D045F6896016E00E4D2878FA2883
:100B400002D345F209200FE0FFF764FB0646FFF7EA
:100B5000B9FC2878401C287001F0EEFCFFF7C2FCBD
:100B60003046FFF75BFB0020208070BD480000206E
:100B7000500000209800002070B504461848007806
:100B800010B146F6655029E016480078012802D0D9
:100B900045F6896022E0144D287890B1FFF73AFBC2
:100BA0000646FFF78FFC2878401E10F0FF002870E3
:100BB0000AD0FFF797FC3046FFF730FB46F663504C
:100BC0000CE046F6645009E001F0C4FCFFF78AFC33
:100BD0003046FFF723FBFFF763FF0020208070BD46
:100BE00048000020500000209800002070B50F4DF4
:100BF0000446287818B145F68A60208070BD01F05F
:100C00000DFB0B4908700B4908700B4900EB4000C5
:100C100051F820000949086009490860012028703E
:100C2000FFF74CFB43F69920E7E700005000002057
:100C30007F0000207E000020FC190020F000002032
:100C4000EC0000202DE9F0410646FFF7E3FA0546E7
:100C5000FFF738FC2E48002404602E4804802E48FC
:100C600004802E4804602E4804602E4804602E48FC
:100C700004602E4804602E480481FFF733FC2846A8
:100C8000FFF7CCFAFFF7C6FA0746FFF71BFC294827
:100C9000056818E0FFF7BEFA0746FFF713FCC5F832
:100CA000B440C5F8B84045F8784F2C63AC61AC82CD
:100CB000EC826C62AC62FFF75FFC45F8200FA5F197
:100CC00034008481AD6AFFF70DFC3846FFF7A6FAC1
:100CD000002DDFD1FFF79EFA0746FFF7F3FB16481A
:100CE000056806E0FFF796FA0746FFF7EBFBAC85D1
:100CF000AD69FFF7F7FB3846FFF790FA002DF1D109
:100D000002F072FA02F078FC3480BDE8F081000055
:100D1000640000205E000020AE000020C000002023
:100D2000D4000020DC0000204C00002090000020B7
:100D3000F0190020C800002084000020F8B5044607
:100D40006946244800F0A4FBBDF8000058BB6A4681
:100D50000021022000F0FAFBBDF8000018BBFFF7ED
:100D600059FA0746FFF7AEFB1B4E00253560FFF72B
:100D7000B9FB3846FFF752FA184919480A68036860
:100D80009A4202D9B2FBF3F010B90A21B2FBF1F09A
:100D90006A46002100F0DAFB69460E4800F0F2F9DD
:100DA000BDF8000008B12080F8BDFFF733FA074610
:100DB000FFF788FB0B480C490560306808600B4959
:100DC00001200870FFF78EFB3846FFF727FA2580D1
:100DD000F8BD00000C1D0020B0000020BC3700084A
:100DE000A8370008C0000020B4000020BC0000208C
:100DF00002480068002800D00047704738000020F3
:100E00002DE9FF4F83B004467248DDE91785DDE91F
:100E100010960078DDF854A0139F10B147F24A10E5
:100E20002AE04CB1059850B166B16B480068874222
:100E30000BD246F630601FE047F2AD101CE047F2DF
:100E40004F1019E046F62F6016E01298B84202D310
:100E500046F6316010E046F27320B9F1200F0BD254
:100E60005FEA090103D0B9F11F0F02D008E05B4926
:100E700000E05B498C4203D0288007B0BDE8F08FCA
:100E8000204601F03BFE4FF0000BA5F800B05FEAF2
:100E9000C8700AD05FEA887007D5304600215A46EC
:100EA00001E004C0491CB942FBD31298CDE9007897
:100EB00006EB8005DDE905012B46324600F0B0FA6D
:100EC0000599A1620699E1620499216284F837903C
:100ED000C4F854A0A56020605FEA0A0024D0A06591
:100EE0001698A76366626060A4F83C8000205946AB
:100EF00004EB8002401CD16710F0FF00F8D004F131
:100F00006400149901F006F8204600F075F8FFF728
:100F100081F90646FFF7D6FA324D2878401CC0B258
:100F20002870012803D004E02F480068D7E701F0BB
:100F300003FBFFF7D7FA3046FFF770F994F8370054
:100F400001F084F9204601F075FA204601F098FD81
:100F500026490888401C088025480078012821D0AF
:100F6000FFF758F90446FFF7ADFA2878401E10F055
:100F7000FF0129700ED101F0EDFA1E48008848B13A
:100F8000FFF7B0FA2046FFF749F907B0BDE8F04F88
:100F900001F0AEBAFFF7A6FA07B02046BDE8F04F61
:100FA000FFF73CB9FFF736F90446FFF78BFA2878CC
:100FB000401E10F0FF01297001D101F0CBFAFFF7BC
:100FC00091FA2046FFF72AF907B0BDE8F04FFFF786
:100FD00067BD000048000020B8370008281900202D
:100FE00060180020980000209C000020CC00002009
:100FF000500000205C00002002490968002900D050
:1010000008477047280000202DE9F0410446524867
:101010000E46007810B147F24E100AE04F48844265
:1010200002D147F24C1004E04D48844204D147F20B
:101030004D100880BDE8F0815CB9FFF7EBF805467C
:10104000FFF740FA47480468FFF74CFA2846FFF7D5
:10105000E5F8FFF7DFF80746FFF734FA424D287846
:10106000401CC0B22870012801D101F065FAFFF7D9
:1010700039FA3846FFF7D2F894F8360008283DD2FE
:10108000DFE800F004080C0C1C080C0C204601F0F2
:1010900005FA13E0204602F08BF80FE0204602F03C
:1010A00087F894F83400072808D2DFE800F0070436
:1010B000070404040400204601F023F804F164004E
:1010C00000F00EFF204600F055F8204601F0EAFC43
:1010D00026490888401E0880204601F00FFDFF20A9
:1010E00084F83600FFF796F80446FFF7EBF9287806
:1010F000401E10F0FF00287021D022E0FFF78AF890
:101100000446FFF7DFF92878401E10F0FF00287032
:101110000CD101F01FFA1648008838B1FFF7E2F948
:101120002046FFF77BF801F0E3F904E0FFF7DAF976
:101130002046FFF773F846F62D6030807AE701F01D
:1011400009FAFFF7CFF92046FFF768F80020308052
:10115000BDE8F041FFF7A4BC480000206018002063
:1011600028190020EC00002098000020CC0000206E
:101170005C00002002490968002900D00847704738
:101180002C0000207FB50D460446FFF743F80646C5
:10119000FFF798F91CB114480068844208D1FFF7A2
:1011A000A1F93046FFF73AF847F2571028807FBD83
:1011B000FFF798F93046FFF731F80C48007858B13E
:1011C0000020CDE902050090034602460190214629
:1011D000074800F08BFC7FBD04B029462046BDE8DF
:1011E000704001F09FBD0000EC000020480000208E
:1011F0005452455302490968002900D008477047F6
:10120000300000202DE9F0478146574814461E461D
:101210000078884610B146F2AE1006E0080006D00D
:10122000B1F5004F03D045F6256018803DE000275A
:1012300004B12760FEF7EEFF8246FFF743F94B4DFE
:101240002968486CD8B1401E804648640CB1086CCF
:101250002060FFF791F929680A6C801AC1F8A40090
:10126000D1F8A820824201D2C1F8A800FFF73AF9CC
:101270005046FEF7D3FF37804046BDE8F0875FEA6F
:10128000084007D5FFF72EF95046FEF7C7FF46F294
:10129000B01009E03648017849B1FFF723F950460C
:1012A000FEF7BCFF46F6635030800020E5E70121E1
:1012B0008046017001F040F9FFF714F95046FEF73F
:1012C000ADFF00214B460722084600F07BFEFEF7EB
:1012D000A1FF8146FFF7F6F898F80010491E11F0BB
:1012E000FF0188F8001001D101F034F9FFF7FAF896
:1012F0004846FEF793FFFFF7D3FBFEF78BFF8046D0
:10130000FFF7E0F8286890F8351031B1012916D0C0
:1013100003291AD046F62E601BE074B1006C2060E1
:10132000FFF72AF929680A6C801AC1F8A400D1F8DD
:10133000A820824201D2C1F8A80037800AE00CB18F
:10134000006C206046F2A91003E004B1276047F268
:10135000D92030802868446CFFF7C4F84046FEF777
:101360005DFF204689E7000048000020EC000020D7
:10137000980000202DE9F0470546274816460F46FD
:1013800000781C4610B147F259100AE046F2D52009
:101390003FB136B1FEF73EFF8146FFF793F81DB12E
:1013A00004E01880BDE8F0871C4805684FF000088D
:1013B000286858B195F83C00C00713D0FFF792F8A1
:1013C0004846FEF72BFF0020696A1AE0FFF78AF80B
:1013D0004846FEF723FFC7F8008047F25210C6F8D0
:1013E00000800AE0FFF77EF84846FEF717FFC7F8CF
:1013F000008047F25410C6F800802080D2E7401CDD
:10140000091D0A68002AFAD03860A96B081A3060F2
:10141000A4F80080C6E7000048000020EC0000208F
:1014200010B5029C02EB84024FF0807442E9020482
:10143000164842F80C0C4FF0123042F8100CA2F192
:1014400014004FF0023240E903134FF0113140F81D
:10145000101CD10040F8141C4FF0093140F8181C42
:10146000910040F81C1C4FF007314FF0033440F856
:10147000201C610040F8241C4FF0053140F8281D65
:101480005100C0E9092440F8041D10BD252E0008B4
:101490001FB5104A904202D147F25B1004E00E4A99
:1014A000904203D147F25C1008801FBD0B4A1278AE
:1014B00052B10022CDE90221014600921346019269
:1014C000074800F013FB1FBD04B0BDE8104001F059
:1014D00079BD000060180020281900204800002075
:1014E0005453555370B51548006800B18047FFF755
:1014F00043F8134C134A21681268914207D0D1F87F
:101500009830C31A41F8943F8D682B448B60C2F821
:101510009800FEF7B9FF2168D1F8B420824201D2C9
:10152000C1F8B400084AD1F8B8301068834201D23B
:10153000C1F8B8000020106070BD00003C00002021
:10154000EC000020F0000020940000202DE9F04184
:10155000804636480F461546007810B147F2752090
:1015600020E0334C207810B146F663501AE047B1C2
:10157000022F06D0042F07D0082F02D045F6256091
:1015800010E0B8F1000F0BD0FEF744FE0646FEF760
:1015900099FF2078401CC0B22070012805D006E0D9
:1015A00047F27E201080BDE8F08100F0C5FFFEF715
:1015B00099FF3046FEF732FE1E4E01212B46306861
:1015C0003A4680F83610414601F086FD288898B1E9
:1015D000FEF720FE0546FEF775FF2078401E10F04E
:1015E000FF01217001D100F0B5FFFEF77BFF284617
:1015F000BDE8F041FEF712BE306800F04FFFFEF785
:1016000009FE0646FEF75EFF2078401E10F0FF0040
:10161000207001D100F09EFFFEF764FF3046FEF718
:10162000FDFDFFF73DFA00202880BCE748000020C0
:1016300098000020EC0000202DE9F0475C4EDDE929
:101640000854367816B147F27520ABE0DFF864A194
:101650009AF8006016B146F66350A3E015F00E0646
:1016600047F27E2945F6256705D0022E03D0042EC9
:1016700006D0082E07D11BB912B909B900287DD0B0
:1016800035F01E0C02D02780BDE8F087C5F30015A9
:1016900047F2792C47F278284FF47A773DB142F23D
:1016A0000F75A94212D900BFA4F800C0ECE7BB42F5
:1016B00002D347F27B2075E03B2A02D947F27A2019
:1016C00070E03B29F0D8632802D804E0B84202D386
:1016D000A4F80080D8E7384D4FF4FA7CC1EB011133
:1016E0002D68BCFBF5FC63446B43B3FBF7F34FF48D
:1016F0006167784300EB8100104400FB0537EFB3CE
:10170000FEF788FD8046FEF7DDFE9AF8000055469C
:10171000401CC0B28AF80000012801D100F00CFF83
:10172000FEF7E0FE4046FEF779FDDFF890800121EC
:101730002346D8F80000324680F83610394601F0CA
:10174000CBFC208898B1FEF765FD0446FEF7BAFE93
:101750002878401E10F0FF01297001D100F0FAFE38
:10176000FEF7C0FE2046BDE8F047FEF757BDD8F8AB
:10177000000000F093FEFEF74DFD00E014E0064689
:10178000FEF7A0FE2878401E10F0FF00287001D15F
:1017900000F0E0FEFEF7A6FE3046FEF73FFDFFF745
:1017A0007FF9002020806FE7A4F800906CE700002C
:1017B0004800002098000020BC370008EC00002002
:1017C00000B585B000F01CF8FEF7D6FE04AA002193
:1017D00003920091CDE901100648074900230078E3
:1017E0001A4600EB400001EB8001044800F07EF94E
:1017F00005B000BD7E000020FC1900205449434B79
:1018000002480068002800D00047704740000020D0
:1018100010B5FEF7FFFC0446FEF754FE07490878B2
:10182000401C0870FEF75EFE2046FEF7F7FCFFF74F
:10183000C7FFBDE81040FFF7EBB8000048000020EC
:101840004FF0E021401E48610648026822F07F42C6
:101850000260086940F005000861086940F0020074
:101860000861704720ED00E070470000034A002146
:101870001160034A11800180704700006800002059
:101880006C0000202DE9F05F9A4690460D46044614
:101890000A9FFEF7BFFC8346FEF714FE5FEA0800CE
:1018A00024D0012807D0B0F5004F1FD06FF40041BD
:1018B00018EB010F12D1206A30EA0500C4E9080ACA
:1018C000208A04F108064FF0000990B14D4D2878A8
:1018D000401CC0B22870012815D016E0FEF702FEA9
:1018E0005846FEF79BFC45F625606CE0206A2843CD
:1018F000E4E7FEF7F7FD5846FEF790FCA7F80090E6
:10190000206ABDE8F09F00F017FEFEF7EBFD584699
:10191000FEF784FC366833E090F88810766801F0B2
:101920000F0101291BD0022921D004290DD008293B
:1019300010D0FEF76FFC0446FEF7C4FD2878401E69
:1019400010F0FF0028702AD036E0216AD0F88020FD
:10195000114009E0216AD0F8802011400BE0D0F856
:101960008010236A0A4699438A4205D007E0D0F8DE
:101970008010226A914311B1524600F047F816B127
:10198000B0680028C8D1FEF745FC0646FEF79AFD70
:101990002878401E10F0FF00287017D018E000F0E3
:1019A000D9FD1948008838B1FEF79CFD2046FEF7A6
:1019B00035FC00F09DFD04E0FEF794FD2046FEF7A7
:1019C0002DFC43F6FF20388000209AE700F0C2FD8E
:1019D000FEF788FD3046FEF721FC5FEA084001D49F
:1019E000FFF75EF8FEF716FC0546FEF76BFD246A6E
:1019F000FEF778FD2846FEF711FCA7F80090204678
:101A00007FE70000980000205C00002070B50025F2
:101A1000C0F8841080F8355080F8345004460264D1
:101A200090F8360008280ED2DFE800F00D0D04040F
:101A30000D0D0A0A204601F067F984F8365002E0DD
:101A4000042084F836002046BDE8704000F059BB01
:101A50000A4C0B4DFEF7DEFB0646FEF733FD206811
:101A6000401C20602868401C2860FEF73BFD304683
:101A7000FEF7D4FBFEF7E8FEECE700004400002090
:101A8000B000002000B50E4A89B0002111600B2281
:101A900005910691CDE907200A480B4A0B4B0068D7
:101AA00012681B680292CDE903011F20CDE90003F3
:101AB0000023074A07A10C48FFF7A2F909B000BDAF
:101AC000440000207C37000878370008743700088D
:101AD000511A000875432F4F532D49494920496435
:101AE0006C65205461736B00601800202DE9F84F7D
:101AF0001D46DDE90CB4DDE90AA916460F4680460D
:101B0000FEF788FB0090FEF7DDFC1D481D4A0188AA
:101B1000128891422DD2491C89B201801A4802884C
:101B20008A4200D2018019490868C0F80080C0E9E3
:101B300002760582C0F814A0A0F81890C0F81CB076
:101B4000406808601248012101811249016041602A
:101B5000002000F07BFB1048007808B10F490870A6
:101B600000202080FEF7BEFC0098BDE8F84FFEF78D
:101B700055BB0B490888401C088044F25360F0E7CD
:101B80005C000020843700085E0000205400002024
:101B9000FC190020281900207E0000208000002071
:101BA000600000203EB5374C374B02A92068026820
:101BB000D51A9A4245D015DC344BD2182DD0344B6F
:101BC000D21822D0334BD21832D0334BDA4208D15C
:101BD000C269CDE90021038B028AC168806800F0E8
:101BE000F1FF3EBD2D4AAA181ED02D4BD21824D08D
:101BF0002C4BDA42F5D1C269CDE90021038B028A70
:101C0000C168806800F04EFB3EBD0091028BC36945
:101C100041698068FFF736FE3EBD018BC26980686E
:101C200002AB00F0F5FC3EBD806801F07BF83EBDE4
:101C3000018BC269806802AB21E0806801F0C2F9C3
:101C40003EBD19481949007800EB400001EB8000C7
:101C500000F09EFC206802AB0021C269144801F02C
:101C6000EDF814480168491E0160E9D1124909687C
:101C70000160FEF781FC024602AB00210F4801F033
:101C8000DDF83EBD580000205449434BADBAB2BE0A
:101C90000DF90BFAF2F8F7FF0006F6FF00F7FDF773
:101CA00000FFEFFF03FE0FFE80000020FC19002064
:101CB000441C0020E8000020E40000200C1D00204F
:101CC0001D4D1E4C1E4E00BFFEF7A4FA0746FEF740
:101CD000F9FB208808B3FEF705FC3846FEF79EFAAC
:101CE000FEF74AFC0746FFF75DFFFEF745FC296853
:101CF000C01B814200D22860FEF78CFA0746FEF72F
:101D0000E1FB3068406830602088401E2080FEF78C
:101D1000E9FB3846FEF782FAD6E70A490020088137
:101D20000860486000F0A2FAFEF7DCFB3846FEF7D8
:101D300075FAFEF7B5FEC5E7640000205C000020E0
:101D400058000020FC190020F0B52F492F4D89B014
:101D500000220A80296831B12D4E3188022905D22E
:101D600044F2546135E044F2526132E029490023E3
:101D7000294F0A60296801F1200410E041F8087B2E
:101D80005B1C41F8082B9BB241F8042C21F8102B66
:101D900041F80C2C21F8082C41F81C4C2034B6F8E2
:101DA00000C06345EAD32B6841F81C3C1B490B601B
:101DB0001B490B601B490A801B490A801B490B68A1
:101DC00053B11B4B1B4D1C682D68AC4207D244F22B
:101DD0005661018009B0F0BD44F25561F9E7032472
:101DE00005920692CDE907401868134B09681B68F5
:101DF000CDE903020092CDE9011300230F4A10A19F
:101E00001648FEF7FDFFE5E7600000208037000878
:101E100084370008640000204E4F4E4554000020D7
:101E2000580000205C0000205E0000208837000879
:101E300090370008B83700088C370008C11C00082C
:101E400075432F4F532D494949204953522051750D
:101E5000657565205461736B00000000281900202F
:101E6000034A00211160034A11800180704700007D
:101E70007000002074000020F0B5164C216859B1A4
:101E8000154E318859B189B2491E22688FB200259A
:101E900002F1100329460EE045F21E7118E045F2EA
:101EA0001D7115E0E2E802316D1C22F8081BADB28D
:101EB00042F8041C1033BD42F4D31160516011810B
:101EC000D160064A2368136033889380D1801181E2
:101ED0000180F0BDA03700089C370008F0190020F1
:101EE00010B5428992B10A4903680C681C604368C6
:101EF0000B60CB8844891B1BCB808B88448923448F
:101F00008B8000214181818101604160104610BDBC
:101F1000F01900200181002141818181016041602F
:101F200070470000F0B54489DDE905E70589AC425A
:101F300002D346F293501EE01B4DAE88CEB12C6802
:101F4000761ED4F800C0C5F800C0AE80EE88761CBE
:101F5000B6B2EE80B5F808C0B44500D22E814689ED
:101F6000002556B1DB060ED403681C6004602560B2
:101F70000CE045F21D703880F0BD04600123446020
:101F80004381256005E043682360446043895B1C0E
:101F90004381868943899E4200D283816160228188
:101FA000C4F80CE03D80F0BDF0190020034A002188
:101FB0001160034A11800180704700007800002002
:101FC0007C0000202DE9F041114D07460C462868A1
:101FD0000026194680F8342080F8356000F03AFD7C
:101FE00064B1FC6004F1080601223946286800F05B
:101FF00011F83946304600F057F802E02868C687E5
:10200000066320462968BDE8F04100F01BB80000D7
:10201000EC00002010B5C2870024234601630EE0C7
:102020004B6041F8103B641C41F8103BA4B241F8EE
:102030000C3C21F8083C41F8043C41F8180C94424F
:10204000EED310BD38B14268C1F8C42081688968F8
:10205000096AC161704791F83400022803D007284B
:1020600003D004A002E004A000E005A0C1F8C40071
:1020700070470000200000005461736B2051000085
:102080005461736B2053656D0000000005A2C1F818
:10209000C420816811B18968096A00E001A1C161A9
:1020A000704700002000000030B58A68002392F8D5
:1020B000374002891AB1521C028102680BE00122EA
:1020C00002814B600B60016014E0956895F8375011
:1020D000A54203D85268002AF7D107E032B114684C
:1020E00054B1C1E900426160116030BD4B6042688B
:1020F0000A605160416030BD1160C1E90032016089
:1021000030BD70B50646C48F056B07E0E868294608
:10211000083000F009F8641EA4B22035002CF5D177
:102120000020F087306370BD10B502890023012ABA
:102130000BD00A6862B14C6874B1546022600289A5
:10214000521E02814B600B6010BD03604360F6E7D6
:102150004A6813600260F2E753604260EFE7F8B547
:102160000C46064691F836100025069808293BD201
:10217000DFE801F03A3A04043A3A202094F83410A7
:10218000032911D0E265A4F86030206436B12046FE
:10219000FFF7B7FF21463046FFF778FF204600F0F3
:1021A000B3FD84F836501BE000902146304600F025
:1021B00022F8EBE794F83410032916D0E265A4F86E
:1021C00060302064204600F0F3FF36B12046FFF770
:1021D00098FF21463046FFF759FF042084F8360067
:1021E00084F8355084F83450F8BD009021463046CC
:1021F00000F001F8E6E770B50C6B049DC98F0AE0AA
:10220000E668864204D1C4E904022383E56170BD17
:10221000491E89B220340029F2D170BD10B50024C6
:10222000064802E02034E4B2001D01680029F9D01C
:102230000846FDF7FAFF2044C0B210BD240000207C
:1022400001490020086070472400002000F01F02B0
:1022500041090120C2F11F029040034A52F8213087
:10226000034342F8213070472400002000F01F0291
:1022700041090120C2F11F029040034A52F8213067
:10228000834342F82130704724000020034A002194
:102290001160034A11800180704700008400002013
:1022A000880000202DE9FF4F83B01F46DDE9109A1A
:1022B00093460646FDF7AEFF0546FEF703F9384C98
:1022C0002078401CC0B22070012801D100F034F900
:1022D000FEF708F92846FDF7A1FF358A06F1080048
:1022E0001DB1B90530D500683CE0F80601D40023E3
:1022F00000E01023CDE9009A5A4606F12000049927
:10230000FFF710FEFDF786FF0546FEF7DBF82078A5
:10231000401E10F0FF0121700ED100F01BF9214882
:10232000008848B1FEF7DEF82846FDF777FF07B0D2
:10233000BDE8F04F00F0DCB8FEF7D4F807B028464F
:10234000BDE8F04FFDF76ABF006801255B46D0E9A4
:102350000181CDF800903046049AFFF700FF6D1E12
:102360004046ADB2002DF1D1FDF754FF0546FEF712
:10237000A9F82078401E10F0FF00207001D100F075
:10238000E9F8FEF7AFF82846FDF748FF380401D416
:10239000FEF786FB0021AAF8001007B0BDE8F08F19
:1023A000980000205C0000200020074B014600BF81
:1023B00000EB400203EB8202401C11811160C0B2AD
:1023C00051602028F4D37047FC19002010B5044652
:1023D00090F83700FFF73AFF074994F8370009787B
:1023E0008842204603D1BDE8104000F023B8BDE884
:1023F000104000F003B800007E00002090F8371075
:102400000B4A01EB410102EB810100220B8943B130
:102410005B1C0B810B68C0E903320A68106108601D
:10242000704701230B81C2600261086048607047F9
:10243000FC19002090F837100A4A01EB410102EB29
:10244000810100220B893BB15B1C0B81C2604A6891
:102450000261D0604860704701230B81C260026155
:102460000860F7E7FC19002010B50289002A14D093
:10247000012A12D00021022A07D0D0E90024D36813
:102480001961C2E90314E26005E0D0E90023C2E962
:102490000313C3E90321C0E9003210BD70B505463E
:1024A00090F83700114900EB400001EB8001D5E9BD
:1024B0000302002442B10B895B1E0B81D06090B1F6
:1024C00002612C61EC6070BD28B10A89521E0A813C
:1024D00004610860F5E70C810C604C6095F83700EA
:1024E000FFF7C4FEEDE74A60EBE70000FC190020AF
:1024F00010B5FDF78FFE0B4A002111700B4A0A49F7
:10250000116051F8902F521C0A6009490A68521C48
:102510000A60084A4FF080511160BDE81040FDF795
:102520007DBE00007F00002028190020F000002060
:10253000C400002004ED00E0044810B50078012834
:1025400003D1FEF719F80249086010BD9800002079
:102550008C0000200A4810B5007800280ED1FEF744
:102560000BF808490968401A07490A68824200D2F4
:10257000086006490A68824200D2086010BD000067
:10258000980000208C000020900000209400002083
:1025900070B5044614480078012824D1FDF73AFEAE
:1025A0000546FDF78FFF2168B1B11048814213D075
:1025B0008A6D12B1521E8A650ED1208902280BD372
:1025C0000B48007840B92046FFF74EFF2068416D68
:1025D00009B9084909688165FDF784FF2846BDE807
:1025E0007040FDF71BBE70BDA000002060180020E9
:1025F000980000209C000020034A00211160034A3B
:102600001180018070470000A4000020A800002075
:102610002DE9F84F1E46904689460446FDF7FAFD1F
:102620000090FDF74FFF208A04F108074FF0000BE0
:1026300050B1DFF8BCA09AF80010491CC9B28AF862
:10264000001001291AD01BE0256A681C0CD06D1CF3
:10265000C4E90858FDF746FF0098FDF7DFFDA6F82E
:1026600000B02846BDE8F88FFDF73CFF0098FDF765
:10267000D5FD46F6C55030800020F3E7FFF75CFF3C
:10268000FDF730FF0098FDF7C9FD5FEA895002D5DC
:102690003D893F680CE03F6801250023B9687F68E9
:1026A0001A462046CDF80080FFF759FD6D1EADB2E9
:1026B000002DF2D1246AFDF7ADFD0546FDF702FFBE
:1026C0009AF80000401E10F0FF008AF8000001D1C7
:1026D000FFF740FFFDF706FF2846FDF79FFD5FEA85
:1026E000094001D4FEF7DCF9A6F800B02046B9E7AE
:1026F000980000200EB5964C964E2068450004E0E8
:1027000028466A460021FEF721FF30780128F7D1DC
:102710006846FEF797FA904822680168914206D908
:102720000A462168B2FBF1F15FEA010803D10068B3
:102730000A21B0FBF1F8DFF824B2894F42F2107A97
:102740005FF00006FDF718FF0190FDF7ADFE85492B
:102750000860FDF75FFD0546FDF7B4FE8248834C37
:10276000016821600660FDF7BDFE2846FDF756FDB5
:102770007F48236802689A422BD97E48824202D25F
:102780005046012115E07C48824203D24FF47A7012
:102790000A210EE07948824202D26420014608E014
:1027A0007748824203D20A204FF47A7101E0012077
:1027B0005146B2FBF1F15843B0FBF1F0AAEB000037
:1027C000704980B2ABF800000A88824203D20880C8
:1027D00001E0ABF800A0FEF70BFB0024FDF71AFDAB
:1027E0008146FDF76FFE3D6842E000BFFDF712FD38
:1027F0000290FDF767FEDFF8909199F80010491CF0
:10280000C9B289F80010012901D1FFF795FEFDF743
:1028100069FE0298FDF702FDD5F89C00C5E9276026
:10282000FDF7F8FC0290FDF74DFE99F80010491EE7
:1028300011F0FF0189F800100CD1FFF78BFE53480F
:10284000008838B1FDF74EFE0298FDF7E7FCFFF770
:102850004FFE04E0FDF746FE0298FDF7DFFC55F859
:10286000A00F0444FDF7D6FC8146FDF72BFE2D6A30
:10287000FDF738FE4846FDF7D1FC002DB6D12CB34C
:102880003C48844202D25546012015E03A48844231
:1028900003D24FF47A750A200EE03848844202D2FF
:1028A0006425284608E03648844203D20A254FF4BE
:1028B0007A7001E001255046B4FBF0F08146FDF747
:1028C000A9FC0290FDF7FEFD3C6822E000250120F6
:1028D000F4E700BFD4F8A0006843B0FBF9F080B281
:1028E000504500D95046A4F88C00B4F88E108142AF
:1028F00001D2A4F88E0004F1AC026B46111D2046F3
:10290000FEF738FDFDF786FC0290FDF7DBFDD4F8FD
:10291000C040FDF7E7FD0298FDF780FC002CD9D1FF
:102920001B480178012903D106706846FEF78AF931
:10293000FDF722FE0199401A16490A68824200D228
:1029400008606A4600214046FEF700FEFAE60000F5
:10295000A8370008BC000020BC370008AC000020ED
:10296000C80000204C000020B0000020B80000206B
:10297000B4000020801A060000093D00005A6202DF
:102980000084D717AE000020980000205C000020D3
:10299000AA000020C000002030B51D4A89B00021E7
:1029A00011601C4A11601C4A11601C4A11701C4ABB
:1029B00011701C4A136843B11B4B1C4D1C682D68D9
:1029C000AC4205D246F62C6108E046F62B6105E0E4
:1029D000174C25781F2D04D346F62A61018009B0D3
:1029E00030BD032505910691CDE9075011481B68BC
:1029F00012680068CDE90120CDE90331207800900C
:102A000000230D4A0DA11248FEF7FAF9E7E700008E
:102A1000B0000020B8000020B4000020BC0000205E
:102A2000AA000020AC370008B4370008B837000807
:102A3000A4370008B0370008F526000875432F4F6B
:102A4000532D4949492053746174205461736B00BC
:102A50007C1B002038B50446022531B16B460222AA
:102A600000F03AFBBDF8000028B184F8365020464B
:102A7000FFF714FD38BD032084F83600F7E70000A7
:102A8000074B0022C0F8BC20196829B1C0F8C0105B
:102A9000C1F8BC0018607047C0F8C020FAE7000019
:102AA000C8000020D0E92F2100234AB181B1C2F82B
:102AB000C010C1F8BC20C0F8C030C0F8BC307047AE
:102AC000054A116009B1C1F8BC30C0F8C030704788
:102AD000C2F8C030F1E70000C8000020044A00211D
:102AE0001160044A1180044A11600180704700009F
:102AF000C8000020CC000020C400002070B50025D4
:102B0000056085604560C560056145610446856175
:102B100029A0C4E907506562A562E5622563E587DF
:102B20002564E565A4F86050002104F16400FFF716
:102B3000F1F96567A567C4F88050A4F888500020B3
:102B4000C4F8845004EB8001401CCD6710F0FF00F6
:102B5000F8D06564C4F8A450C4F8A850A56384F8FC
:102B60008A50C4F8B050C4F8AC50A5874FF000406C
:102B7000C4E9120525656565A565A4F88C50A4F81F
:102B80008E50C4F89050C4F894503434FDF7F4FCDF
:102B9000C4E91905C4F88050C4F8845004F8015BF6
:102BA000202004F8015B04F8015B04F8850B04A005
:102BB00020C4C4E9005070BD3F5461736B00000035
:102BC000200000002DE9FC5F9946DDE90C76924675
:102BD0008B460546FDF71EFB8046FDF773FC474C10
:102BE0002078401CC0B22070012801D1FFF7A4FC5E
:102BF000FDF778FC4046FDF711FB0DB9404805682C
:102C00000020308095F83600DFF8F880082852D28E
:102C1000DFE800F00404262604042626CDE9007629
:102C20004B465246594605F16400FFF77BF9FDF724
:102C3000F1FA0546FDF746FC2078401E10F0FF0132
:102C4000217031D1FFF786FCB8F8000060B3FDF7C2
:102C500049FC2846FDF7E2FABDE8FC5FFFF748BCF7
:102C600095F834000228D9D153465A462946002007
:102C70000097FFF774FAFDF7CDFA0546FDF722FC41
:102C80002078401E10F0FF01217001D1FFF762FC97
:102C9000FDF728FC2846FDF7C1FA5FEA09402AD46F
:102CA000BDE8FC5FFDF7FCBEFDF71CFC2846BDE857
:102CB000FC5FFDF7B3BAFDF7ADFA0546FDF702FC80
:102CC0002078401E10F0FF0020700CD1FFF742FC6E
:102CD000B8F8000038B1FDF705FC2846FDF79EFA6C
:102CE000FFF706FC04E0FDF7FDFB2846FDF796FA2A
:102CF00046F62D603080BDE8FC9F00009800002063
:102D0000EC0000205C00002010B5044600F050FAF2
:102D100094F83600400704D42046BDE81040FFF781
:102D200055BB10BD2DE9F0410D460446FDF772FA82
:102D30000746FDF7C7FB00262E8094F836000828CA
:102D400064D2DFE800F0040404040D394955FDF7AE
:102D5000C9FB3846FDF762FA47F25310288037E086
:102D60002F4D2878401CC0B22870012801D1FFF7F0
:102D7000E3FBFDF7B7FB3846FDF750FA94F88A00FD
:102D8000401E10F0FF0084F88A0004D184F83660F9
:102D90002046FFF7B9FFFDF73DFA0446FDF792FB29
:102DA0002878401E10F0FF01297001D1FFF7D2FBF7
:102DB000FDF798FB204609E094F88A00401E10F0C9
:102DC000FF0084F88A001BD101200EE0FDF726FAEF
:102DD000BDE8F041FDF764BE94F88A00401E10F093
:102DE000FF0084F88A000BD1022084F8360007E047
:102DF00094F88A00401E10F0FF0084F88A0003D087
:102E0000FDF770FB3846E1E70320EEE7FDF76AFBCC
:102E10003846FDF703FA46F62D602880BDE8F081BC
:102E200098000020044808B50068FEF7E3F96946F9
:102E30000020FEF7E9F808BDEC0000202DE9F84F6E
:102E4000984691468B460646FDF7E4F90546FDF7A0
:102E500039FB594C2078401CC0B22070012801D1A8
:102E6000FFF76AFBFDF73EFB2846FDF7D7F90EB9E1
:102E7000524806680020524FC6F84090A8F800005B
:102E800096F8360046F6C55A082872D2DFE800F0F8
:102E900033332F2F33332F2FFDF724FB2846FDF735
:102EA000BDF9FFF725FB04E0FDF71CFB2846FDF705
:102EB000B5F9A8F800A00020BDE8F88F6D1C756476
:102EC000FDF7A8F90646FDF7FDFA2078401E10F040
:102ED000FF00207047D1FFF73DFB3888F0B3FDF7C6
:102EE00001FB3046FDF79AF9FFF702FB62E096F826
:102EF0003400072813D0756C681CDFD1FDF78AF900
:102F00000546FDF7DFFA2078401E10F0FF00207024
:102F1000CAD1FFF71FFB38880028C5D0BCE70023C3
:102F20001A4631461846CDF80090FFF718F9756C2F
:102F3000FDF770F90646FDF7C5FA2078401E10F03F
:102F4000FF00207001D1FFF705FBFDF7CBFA3046FB
:102F5000FDF764F95FEA0B402CD401E003E008E0E0
:102F6000FDF79EFD26E0FDF7BDFA3046FDF756F968
:102F700020E0FDF74FF90546FDF7A4FA2078401E42
:102F800010F0FF0020700BD1FFF7E4FA388838B159
:102F9000FDF7A8FA2846FDF741F9FFF7A9FA04E082
:102FA000FDF7A0FA2846FDF739F946F62D60A8F896
:102FB0000000002528467FE798000020EC00002054
:102FC0005C0000202DE9F0410D460446FDF722F992
:102FD0000746FDF777FA334804B9046801683248B8
:102FE0008C4209D1017839B1FDF77CFA3846FDF7FA
:102FF00015F946F6635052E00021298094F8361006
:103000000126082944D2DFE801F0043133393B3B83
:103010003B3B05460078401CC0B22870012801D116
:10302000FFF78AFAFDF75EFA3846FDF7F7F8042055
:1030300084F8360084F88A602046FFF72FFAFDF7FF
:10304000E9F80446FDF73EFA2878401E10F0FF012B
:10305000297001D1FFF77EFAFDF744FA4FEA040028
:10306000FDF7DCF8BDE8F041FDF71ABD052000E0F2
:10307000062084F8360084F88A6005E00720F8E727
:1030800014F88A0F401C2070FDF72CFA3846E7E749
:10309000FDF728FA3846FDF7C1F846F62D6028807E
:1030A000BDE8F081EC0000209800002010B5002061
:1030B0000146074C074B06E004EBC002401C1160C0
:1030C0009180D18080B21A889042F5D310BD000063
:1030D00050150020D0370008F0B5324C47F27E265C
:1030E00025680024042A08D0B1B32E4E082A366879
:1030F0000E440BD0C0E9136115E04A1B521E12F5B5
:10310000803F2AD8521CC0E913120CE0826C0A449A
:10311000571B7F1E8F4201D2C26400E0C664C16C9F
:103120004A1B02658164204AC16C1288B1FBF2F629
:1031300002FB16111D4A89B202EBC102918889B1C6
:103140001168F1B1CE6C761B0E65076DB74212D9CE
:103150004E6966B13146F5E7FFE7C4640465C461B2
:103160001E80F0BD44618461012110600BE0C0E964
:103170000541486105E08D6975B1C0E905156861D3
:1031800088619188491C9180D58889B28D4200D28E
:10319000D180C2611C80F0BDC0E905148861106057
:1031A000EFE70000D0000020D037000850150020C5
:1031B00010B5C269002A15D0002101651368834249
:1031C00004D14369136033B1996104E0D0E9053457
:1031D000636103B19C6141618161C161C164908897
:1031E000401E908010BD000010B500200446064B24
:1031F000064A04E003EBC001401CCC8080B2118879
:103200008842F7D310BD000050150020D0370008C9
:103210002DE9F05FFCF7FEFF0446FDF753F9554D2D
:103220002878401CC1B22970012901D1FFF784F927
:10323000FDF758F92046FCF7F1FFFDF79DF9DFF89F
:10324000388107464D49D8F800004FF00009401C6E
:10325000C8F8000009884FF0030AB0FBF1F201FB47
:103260001200474980B24FF0040B51F8304074B35C
:1032700094F836006669082851D2DFE800F050045F
:10328000501150295036E06CD8F80010421A2265CF
:10329000884246D184F836902046FFF735FD3EE05F
:1032A000E06CD8F80010421A2265884239D1C4F87F
:1032B0005C90A4F86090FDF75FF920642046FEF76B
:1032C00020FF2046FFF720FD84F8369023E028E019
:1032D000E06CD8F80010421A2265884221D184F8A7
:1032E00036B02046FFF764FF19E0E06CD8F8001014
:1032F000421A2265884214D1C4F85C90A4F8609008
:10330000FDF73AF920642046FEF7FBFE2046FFF762
:103310004FFF84F836B084F835A084F834903446F2
:10332000A5E7FDF729F91749C01B0A68824200D2B8
:103330000860FCF76FFF0446FDF7C4F82878401ECC
:1033400010F0FF0129700DD1FFF704F90E48008835
:1033500040B1FDF7C7F82046FCF760FFBDE8F05F1D
:10336000FFF7C6B8FDF7BEF82046BDE8F05FFCF7F2
:1033700055BF000098000020D0000020D037000882
:1033800050150020D40000205C0000201CB5084C23
:1033900000216B4601AA0846FDF734FFBDF8000086
:1033A0000028F5D120780128F2D1FFF731FFEFE7AF
:1033B0005000002030B504461A4889B00025056049
:1033C00019480560FFF772FE1848016841B11849B5
:1033D000184B0A681B689A4205D247F2132008E08E
:1033E00047F2122005E0144A13781F2B04D347F24A
:1033F0001120208009B030BD0B2305950695CDE93D
:1034000007340E4B096800681B68CDE90103CDE95C
:103410000315107800900023094A0AA10E48FDF711
:10342000EFFCE7E7D0000020D4000020C4370008FC
:10343000CC370008B8370008C0370008C837000884
:103440008D33000875432F4F532D49494920546946
:10345000636B205461736B00441C002030B52A4A12
:1034600089B00021294B1160294C2A4A1D681DB1E1
:103470002468B4FBF5F303E023680A24B3FBF4F3F8
:1034800013601A46244B274D274C1A60234A1160BB
:10349000234A1160002206E005EBC203521C99800A
:1034A000D98092B2196023889A42F5D31F4B1A68CB
:1034B00042B11F4A1F4D14682D68AC4205D247F235
:1034C000483108E047F2473105E01B4C25781F2DB5
:1034D00004D347F24631018009B030BD0B25059178
:1034E0000691CDE907501068144A1B681268CDE9AF
:1034F0000301CDE90132207800900023104A11A188
:103500001648FDF77DFCE7E7D8000020D437000817
:10351000BC370008E4000020E8000020E0000020A4
:10352000DC000020D8170020E4370008D837000856
:10353000E0370008B8370008D2370008DC37000849
:103540002136000875432F4F532D494949205469AE
:103550006D6572205461736B000000000C1D00202B
:1035600070B5022280F82A20204A012914681ED052
:10357000016AE1B11E4A214481611288B1FBF2F374
:1035800002FB13121B4B92B203EBC202002315681D
:103590007DB1091BC1611168D1B18D692D1BCD6150
:1035A000C669AE420ED90D6945B12946F5E7416AB3
:1035B000E0E703614361106001200BE0C0E90431E2
:1035C000086105E04C6964B1C0E9041420614861F8
:1035D0009088401C9080D18880B2814200D2D080F7
:1035E00070BDC0E9041348611060F1E7E0000020FD
:1035F000E4370008D817002010B500200446064B19
:10360000064A04E003EBC001401CCC8080B2118864
:103610008842F7D310BD0000D8170020E437000817
:103620001CB5DFF89090DFF890A0244DDFF890B043
:1036300000216B4601AA0846FDF7E4FD6846FDF748
:103640006DFAFCF799FF064628684FF00308401C06
:103650002860B9F80010B0FBF1F201FB120080B253
:103660005AF83040C4B1A06929682769884213D14B
:10367000204600F027F8208D022808D084F82A8000
:10368000A26812B12046E16890473C46EAE7012172
:103690002046FFF765FFF3E7FCF76EFF841B6846E3
:1036A000FDF76AFADBF80010A142C1D2CBF8004066
:1036B000BEE70000E4370008D8170020E000002033
:1036C000DC00002010B5104A81691288B1FBF2F3CA
:1036D00002FB13110D4A89B202EBC10200231468E8
:1036E0000169844203D1116029B14B6103E044694F
:1036F000216101B14C61012180F82A10036143610D
:103700009088401E908010BDE4370008D817002034
:1037100070477047FEE7000000B58BB009A8FDF7C1
:103720009BF8002009A9032205900690CDE9072106
:103730000C2202928021CDE90310084B0220CDE932
:10374000000306480023064A06A1C838FDF758FBC7
:1037500009A8FDF74BFA0BB0002000BDC001002006
:1037600041030008417070205461736B20537461F1
:1037700072740000D00300200C00000080000000E4
:10378000D00500200A000000100700200C000000F7
:10379000800000001009002080000000640000008C
:1037A000100B00200B0000000A0000005011002048
:1037B0000C0000008000000040000000E803000052
:1037C0000A000000501300200C00000080000000E0
:1037D00011000B000A000000D81500200C000000AA
:1037E00080000000110000000838000800000020E0
:1037F000F80000006C01000800390008F800002003
:10380000884B0000880100080024F400000000003C
:1038100000000000000000000000000000000000A8
:103820000000000000000000000000000000000098
:103830000000000000000000000000000000000088
:103840000000000000000000000000000000000078
:103850000000000000000000000000000000000068
:103860000000000000000000000000000000000058
:103870000000000000000000000000000000000048
:103880000000000000000000000000000000000038
:103890000000000000000000000000000000000028
:1038A0000000000000000000000000000000000018
:1038B0000000000000000000000000000000000008
:1038C00000000000000000000000000000000000F8
:1038D00000000000000000000000000000000000E8
:1038E00000000000000000000000000000000000D8
:1038F00000000000000000000000000000000000C8
:0400000508000131BD
:00000001FF
